{
  "contractName": "MetaDisplay",
  "abi": [
    {
      "anonymous": false,
      "inputs": [
        {
          "indexed": true,
          "internalType": "bytes32",
          "name": "collectionId",
          "type": "bytes32"
        },
        {
          "indexed": true,
          "internalType": "bytes32",
          "name": "assetId",
          "type": "bytes32"
        }
      ],
      "name": "AssetAdded",
      "type": "event"
    },
    {
      "anonymous": false,
      "inputs": [
        {
          "indexed": true,
          "internalType": "bytes32",
          "name": "collectionId",
          "type": "bytes32"
        },
        {
          "indexed": true,
          "internalType": "address",
          "name": "owner",
          "type": "address"
        },
        {
          "indexed": false,
          "internalType": "string",
          "name": "title",
          "type": "string"
        }
      ],
      "name": "CollectionCreated",
      "type": "event"
    },
    {
      "inputs": [
        {
          "internalType": "bytes32",
          "name": "",
          "type": "bytes32"
        },
        {
          "internalType": "address",
          "name": "",
          "type": "address"
        }
      ],
      "name": "assetAppreciatorIndex",
      "outputs": [
        {
          "internalType": "uint256",
          "name": "",
          "type": "uint256"
        }
      ],
      "stateMutability": "view",
      "type": "function",
      "constant": true
    },
    {
      "inputs": [
        {
          "internalType": "uint256",
          "name": "",
          "type": "uint256"
        }
      ],
      "name": "assetIds",
      "outputs": [
        {
          "internalType": "bytes32",
          "name": "",
          "type": "bytes32"
        }
      ],
      "stateMutability": "view",
      "type": "function",
      "constant": true
    },
    {
      "inputs": [
        {
          "internalType": "bytes32",
          "name": "",
          "type": "bytes32"
        }
      ],
      "name": "assets_display",
      "outputs": [
        {
          "internalType": "string",
          "name": "_id",
          "type": "string"
        },
        {
          "internalType": "address",
          "name": "owner",
          "type": "address"
        },
        {
          "internalType": "string",
          "name": "title",
          "type": "string"
        },
        {
          "internalType": "string",
          "name": "description",
          "type": "string"
        },
        {
          "internalType": "string",
          "name": "image",
          "type": "string"
        },
        {
          "internalType": "string",
          "name": "category",
          "type": "string"
        },
        {
          "internalType": "string",
          "name": "date",
          "type": "string"
        }
      ],
      "stateMutability": "view",
      "type": "function",
      "constant": true
    },
    {
      "inputs": [
        {
          "internalType": "uint256",
          "name": "",
          "type": "uint256"
        }
      ],
      "name": "collectionIds",
      "outputs": [
        {
          "internalType": "bytes32",
          "name": "",
          "type": "bytes32"
        }
      ],
      "stateMutability": "view",
      "type": "function",
      "constant": true
    },
    {
      "inputs": [
        {
          "internalType": "bytes32",
          "name": "",
          "type": "bytes32"
        }
      ],
      "name": "collections",
      "outputs": [
        {
          "internalType": "string",
          "name": "_id",
          "type": "string"
        },
        {
          "internalType": "address",
          "name": "owner",
          "type": "address"
        },
        {
          "internalType": "string",
          "name": "profile",
          "type": "string"
        },
        {
          "internalType": "string",
          "name": "cover",
          "type": "string"
        },
        {
          "internalType": "string",
          "name": "title",
          "type": "string"
        },
        {
          "internalType": "string",
          "name": "description",
          "type": "string"
        },
        {
          "internalType": "string",
          "name": "date",
          "type": "string"
        },
        {
          "internalType": "string",
          "name": "category",
          "type": "string"
        }
      ],
      "stateMutability": "view",
      "type": "function",
      "constant": true
    },
    {
      "inputs": [],
      "name": "no_of_appreciators",
      "outputs": [
        {
          "internalType": "uint256",
          "name": "",
          "type": "uint256"
        }
      ],
      "stateMutability": "view",
      "type": "function",
      "constant": true
    },
    {
      "inputs": [],
      "name": "no_of_assets",
      "outputs": [
        {
          "internalType": "uint256",
          "name": "",
          "type": "uint256"
        }
      ],
      "stateMutability": "view",
      "type": "function",
      "constant": true
    },
    {
      "inputs": [],
      "name": "no_of_collections",
      "outputs": [
        {
          "internalType": "uint256",
          "name": "",
          "type": "uint256"
        }
      ],
      "stateMutability": "view",
      "type": "function",
      "constant": true
    },
    {
      "inputs": [
        {
          "internalType": "string",
          "name": "_id",
          "type": "string"
        },
        {
          "internalType": "address",
          "name": "_owner",
          "type": "address"
        },
        {
          "internalType": "string",
          "name": "_profile",
          "type": "string"
        },
        {
          "internalType": "string",
          "name": "_cover",
          "type": "string"
        },
        {
          "internalType": "string",
          "name": "_title",
          "type": "string"
        },
        {
          "internalType": "string",
          "name": "_description",
          "type": "string"
        },
        {
          "internalType": "string",
          "name": "_date",
          "type": "string"
        },
        {
          "internalType": "string",
          "name": "_category",
          "type": "string"
        }
      ],
      "name": "createCollection",
      "outputs": [],
      "stateMutability": "payable",
      "type": "function",
      "payable": true
    },
    {
      "inputs": [
        {
          "internalType": "string",
          "name": "_id",
          "type": "string"
        }
      ],
      "name": "getCollectionById",
      "outputs": [
        {
          "components": [
            {
              "internalType": "string",
              "name": "_id",
              "type": "string"
            },
            {
              "internalType": "address",
              "name": "owner",
              "type": "address"
            },
            {
              "internalType": "string",
              "name": "profile",
              "type": "string"
            },
            {
              "internalType": "string",
              "name": "cover",
              "type": "string"
            },
            {
              "internalType": "string",
              "name": "title",
              "type": "string"
            },
            {
              "internalType": "string",
              "name": "description",
              "type": "string"
            },
            {
              "internalType": "string",
              "name": "date",
              "type": "string"
            },
            {
              "internalType": "string",
              "name": "category",
              "type": "string"
            },
            {
              "internalType": "string[]",
              "name": "assetId",
              "type": "string[]"
            }
          ],
          "internalType": "struct MetaDisplay.Collections",
          "name": "",
          "type": "tuple"
        }
      ],
      "stateMutability": "view",
      "type": "function",
      "constant": true
    },
    {
      "inputs": [
        {
          "internalType": "string",
          "name": "_id",
          "type": "string"
        },
        {
          "internalType": "string",
          "name": "_assetId",
          "type": "string"
        }
      ],
      "name": "addAssetToCollection",
      "outputs": [],
      "stateMutability": "nonpayable",
      "type": "function"
    },
    {
      "inputs": [],
      "name": "getAllCollections",
      "outputs": [
        {
          "components": [
            {
              "internalType": "string",
              "name": "_id",
              "type": "string"
            },
            {
              "internalType": "address",
              "name": "owner",
              "type": "address"
            },
            {
              "internalType": "string",
              "name": "profile",
              "type": "string"
            },
            {
              "internalType": "string",
              "name": "cover",
              "type": "string"
            },
            {
              "internalType": "string",
              "name": "title",
              "type": "string"
            },
            {
              "internalType": "string",
              "name": "description",
              "type": "string"
            },
            {
              "internalType": "string",
              "name": "date",
              "type": "string"
            },
            {
              "internalType": "string",
              "name": "category",
              "type": "string"
            },
            {
              "internalType": "string[]",
              "name": "assetId",
              "type": "string[]"
            }
          ],
          "internalType": "struct MetaDisplay.Collections[]",
          "name": "",
          "type": "tuple[]"
        }
      ],
      "stateMutability": "view",
      "type": "function",
      "constant": true
    },
    {
      "inputs": [
        {
          "internalType": "string",
          "name": "_id",
          "type": "string"
        }
      ],
      "name": "deleteAssetById",
      "outputs": [],
      "stateMutability": "nonpayable",
      "type": "function"
    },
    {
      "inputs": [
        {
          "internalType": "string",
          "name": "_id",
          "type": "string"
        }
      ],
      "name": "deleteCollectionById",
      "outputs": [],
      "stateMutability": "nonpayable",
      "type": "function"
    },
    {
      "inputs": [
        {
          "internalType": "string",
          "name": "_id",
          "type": "string"
        },
        {
          "internalType": "string",
          "name": "_title",
          "type": "string"
        },
        {
          "internalType": "string",
          "name": "_description",
          "type": "string"
        },
        {
          "internalType": "string",
          "name": "_image",
          "type": "string"
        },
        {
          "internalType": "string",
          "name": "_category",
          "type": "string"
        },
        {
          "internalType": "string",
          "name": "_date",
          "type": "string"
        }
      ],
      "name": "createAsset",
      "outputs": [
        {
          "internalType": "string",
          "name": "",
          "type": "string"
        }
      ],
      "stateMutability": "nonpayable",
      "type": "function"
    },
    {
      "inputs": [
        {
          "internalType": "bytes32",
          "name": "assetId",
          "type": "bytes32"
        }
      ],
      "name": "assetExists",
      "outputs": [
        {
          "internalType": "bool",
          "name": "",
          "type": "bool"
        }
      ],
      "stateMutability": "view",
      "type": "function",
      "constant": true
    },
    {
      "inputs": [],
      "name": "getAllAssets",
      "outputs": [
        {
          "components": [
            {
              "internalType": "string",
              "name": "_id",
              "type": "string"
            },
            {
              "internalType": "address",
              "name": "owner",
              "type": "address"
            },
            {
              "internalType": "string",
              "name": "title",
              "type": "string"
            },
            {
              "internalType": "string",
              "name": "description",
              "type": "string"
            },
            {
              "internalType": "string",
              "name": "image",
              "type": "string"
            },
            {
              "internalType": "string",
              "name": "category",
              "type": "string"
            },
            {
              "internalType": "string",
              "name": "date",
              "type": "string"
            },
            {
              "components": [
                {
                  "internalType": "address",
                  "name": "appreciator",
                  "type": "address"
                },
                {
                  "internalType": "string",
                  "name": "assetId",
                  "type": "string"
                },
                {
                  "internalType": "uint256",
                  "name": "amountAppreciated",
                  "type": "uint256"
                },
                {
                  "internalType": "uint16",
                  "name": "appreciationQuantity",
                  "type": "uint16"
                }
              ],
              "internalType": "struct MetaDisplay.Appreciator[]",
              "name": "appreciators",
              "type": "tuple[]"
            }
          ],
          "internalType": "struct MetaDisplay.Assets[]",
          "name": "",
          "type": "tuple[]"
        }
      ],
      "stateMutability": "view",
      "type": "function",
      "constant": true
    },
    {
      "inputs": [
        {
          "internalType": "string",
          "name": "_id",
          "type": "string"
        }
      ],
      "name": "getAssetById",
      "outputs": [
        {
          "components": [
            {
              "internalType": "string",
              "name": "_id",
              "type": "string"
            },
            {
              "internalType": "address",
              "name": "owner",
              "type": "address"
            },
            {
              "internalType": "string",
              "name": "title",
              "type": "string"
            },
            {
              "internalType": "string",
              "name": "description",
              "type": "string"
            },
            {
              "internalType": "string",
              "name": "image",
              "type": "string"
            },
            {
              "internalType": "string",
              "name": "category",
              "type": "string"
            },
            {
              "internalType": "string",
              "name": "date",
              "type": "string"
            },
            {
              "components": [
                {
                  "internalType": "address",
                  "name": "appreciator",
                  "type": "address"
                },
                {
                  "internalType": "string",
                  "name": "assetId",
                  "type": "string"
                },
                {
                  "internalType": "uint256",
                  "name": "amountAppreciated",
                  "type": "uint256"
                },
                {
                  "internalType": "uint16",
                  "name": "appreciationQuantity",
                  "type": "uint16"
                }
              ],
              "internalType": "struct MetaDisplay.Appreciator[]",
              "name": "appreciators",
              "type": "tuple[]"
            }
          ],
          "internalType": "struct MetaDisplay.Assets",
          "name": "",
          "type": "tuple"
        }
      ],
      "stateMutability": "view",
      "type": "function",
      "constant": true
    },
    {
      "inputs": [
        {
          "internalType": "address payable",
          "name": "_receiver",
          "type": "address"
        },
        {
          "internalType": "string",
          "name": "_assetId",
          "type": "string"
        }
      ],
      "name": "appreciateAssetById",
      "outputs": [],
      "stateMutability": "payable",
      "type": "function",
      "payable": true
    },
    {
      "inputs": [
        {
          "internalType": "string",
          "name": "_id",
          "type": "string"
        }
      ],
      "name": "getAppreciatorsByAssetId",
      "outputs": [
        {
          "components": [
            {
              "internalType": "address",
              "name": "appreciator",
              "type": "address"
            },
            {
              "internalType": "string",
              "name": "assetId",
              "type": "string"
            },
            {
              "internalType": "uint256",
              "name": "amountAppreciated",
              "type": "uint256"
            },
            {
              "internalType": "uint16",
              "name": "appreciationQuantity",
              "type": "uint16"
            }
          ],
          "internalType": "struct MetaDisplay.Appreciator[]",
          "name": "",
          "type": "tuple[]"
        }
      ],
      "stateMutability": "view",
      "type": "function",
      "constant": true
    },
    {
      "inputs": [],
      "name": "getAllAppreciators",
      "outputs": [
        {
          "components": [
            {
              "internalType": "address",
              "name": "appreciator",
              "type": "address"
            },
            {
              "internalType": "string",
              "name": "assetId",
              "type": "string"
            },
            {
              "internalType": "uint256",
              "name": "amountAppreciated",
              "type": "uint256"
            },
            {
              "internalType": "uint16",
              "name": "appreciationQuantity",
              "type": "uint16"
            }
          ],
          "internalType": "struct MetaDisplay.Appreciator[]",
          "name": "",
          "type": "tuple[]"
        }
      ],
      "stateMutability": "view",
      "type": "function",
      "constant": true
    }
  ],
  "bytecode": "0x608060405260006003556000600455600060055534801561001f57600080fd5b5061586780620000306000396000f3fe60806040526004361061012a5760003560e01c80637b287a47116100ab578063a9b566a31161006f578063a9b566a314610419578063d364769114610456578063d61bda9d14610499578063dd7f1ef3146104c2578063ed0bb96b146104ed578063fb1396341461052a5761012a565b80637b287a47146102f3578063842869c11461033057806387541ed61461036d5780639176df08146103aa578063a316ef68146103ee5761012a565b80632da94a59116100f25780632da94a591461022857806338d36165146102445780634a2c76d11461026f5780634cfd67831461028b5780636804a958146102c85761012a565b80630f9895871461012f57806322a71db7146101585780632acada4d146101955780632c0b6781146101c05780632d3a4b00146101fd575b600080fd5b34801561013b57600080fd5b5061015660048036038101906101519190613dad565b610553565b005b34801561016457600080fd5b5061017f600480360381019061017a9190613e8a565b61079e565b60405161018c9190613ee3565b60405180910390f35b3480156101a157600080fd5b506101aa6107c3565b6040516101b79190614279565b60405180910390f35b3480156101cc57600080fd5b506101e760048036038101906101e29190613dad565b610dd5565b6040516101f49190614321565b60405180910390f35b34801561020957600080fd5b50610212610f8e565b60405161021f9190613ee3565b60405180910390f35b610242600480360381019061023d9190614343565b610f94565b005b34801561025057600080fd5b50610259611219565b6040516102669190613ee3565b60405180910390f35b610289600480360381019061028491906144fb565b61121f565b005b34801561029757600080fd5b506102b260048036038101906102ad9190614557565b61159b565b6040516102bf919061459f565b60405180910390f35b3480156102d457600080fd5b506102dd61160a565b6040516102ea9190614834565b60405180910390f35b3480156102ff57600080fd5b5061031a60048036038101906103159190613dad565b611c16565b604051610327919061494c565b60405180910390f35b34801561033c57600080fd5b5061035760048036038101906103529190613dad565b61219d565b6040516103649190614a48565b60405180910390f35b34801561037957600080fd5b50610394600480360381019061038f9190614a96565b612936565b6040516103a19190614ad2565b60405180910390f35b3480156103b657600080fd5b506103d160048036038101906103cc9190614557565b61295a565b6040516103e5989796959493929190614b46565b60405180910390f35b3480156103fa57600080fd5b50610403612d7a565b6040516104109190613ee3565b60405180910390f35b34801561042557600080fd5b50610440600480360381019061043b9190614a96565b612d80565b60405161044d9190614ad2565b60405180910390f35b34801561046257600080fd5b5061047d60048036038101906104789190614557565b612da4565b6040516104909796959493929190614bf5565b60405180910390f35b3480156104a557600080fd5b506104c060048036038101906104bb9190614c8e565b613136565b005b3480156104ce57600080fd5b506104d7613266565b6040516104e49190614321565b60405180910390f35b3480156104f957600080fd5b50610514600480360381019061050f9190614d06565b6134be565b6040516105219190614e3b565b60405180910390f35b34801561053657600080fd5b50610551600480360381019061054c9190613dad565b6136ea565b005b6000818051906020012090503373ffffffffffffffffffffffffffffffffffffffff166002600083815260200190815260200160002060010160009054906101000a900473ffffffffffffffffffffffffffffffffffffffff1673ffffffffffffffffffffffffffffffffffffffff1614610603576040517f08c379a00000000000000000000000000000000000000000000000000000000081526004016105fa90614ecf565b60405180910390fd5b6002600082815260200190815260200160002060008082016000610627919061396d565b6001820160006101000a81549073ffffffffffffffffffffffffffffffffffffffff021916905560028201600061065e919061396d565b60038201600061066e919061396d565b60048201600061067e919061396d565b60058201600061068e919061396d565b60068201600061069e919061396d565b6007820160006106ae919061396d565b6008820160006106be91906139ad565b505060005b6005548110156107995781600782815481106106e2576106e1614eef565b5b90600052602060002001540361078657600760016005546107039190614f4d565b8154811061071457610713614eef565b5b90600052602060002001546007828154811061073357610732614eef565b5b9060005260206000200181905550600780548061075357610752614f81565b5b600190038181906000526020600020016000905590556005600081548092919061077c90614fb0565b9190505550610799565b808061079190614fd9565b9150506106c3565b505050565b6000602052816000526040600020602052806000526040600020600091509150505481565b6060600060035467ffffffffffffffff8111156107e3576107e2613c82565b5b60405190808252806020026020018201604052801561081c57816020015b6108096139ce565b8152602001906001900390816108015790505b50905060005b600354811015610dcd57600160006006838154811061084457610843614eef565b5b906000526020600020015481526020019081526020016000206040518061010001604052908160008201805461087990615050565b80601f01602080910402602001604051908101604052809291908181526020018280546108a590615050565b80156108f25780601f106108c7576101008083540402835291602001916108f2565b820191906000526020600020905b8154815290600101906020018083116108d557829003601f168201915b505050505081526020016001820160009054906101000a900473ffffffffffffffffffffffffffffffffffffffff1673ffffffffffffffffffffffffffffffffffffffff1673ffffffffffffffffffffffffffffffffffffffff16815260200160028201805461096190615050565b80601f016020809104026020016040519081016040528092919081815260200182805461098d90615050565b80156109da5780601f106109af576101008083540402835291602001916109da565b820191906000526020600020905b8154815290600101906020018083116109bd57829003601f168201915b505050505081526020016003820180546109f390615050565b80601f0160208091040260200160405190810160405280929190818152602001828054610a1f90615050565b8015610a6c5780601f10610a4157610100808354040283529160200191610a6c565b820191906000526020600020905b815481529060010190602001808311610a4f57829003601f168201915b50505050508152602001600482018054610a8590615050565b80601f0160208091040260200160405190810160405280929190818152602001828054610ab190615050565b8015610afe5780601f10610ad357610100808354040283529160200191610afe565b820191906000526020600020905b815481529060010190602001808311610ae157829003601f168201915b50505050508152602001600582018054610b1790615050565b80601f0160208091040260200160405190810160405280929190818152602001828054610b4390615050565b8015610b905780601f10610b6557610100808354040283529160200191610b90565b820191906000526020600020905b815481529060010190602001808311610b7357829003601f168201915b50505050508152602001600682018054610ba990615050565b80601f0160208091040260200160405190810160405280929190818152602001828054610bd590615050565b8015610c225780601f10610bf757610100808354040283529160200191610c22565b820191906000526020600020905b815481529060010190602001808311610c0557829003601f168201915b5050505050815260200160078201805480602002602001604051908101604052809291908181526020016000905b82821015610d9457838290600052602060002090600402016040518060800160405290816000820160009054906101000a900473ffffffffffffffffffffffffffffffffffffffff1673ffffffffffffffffffffffffffffffffffffffff1673ffffffffffffffffffffffffffffffffffffffff168152602001600182018054610cd990615050565b80601f0160208091040260200160405190810160405280929190818152602001828054610d0590615050565b8015610d525780601f10610d2757610100808354040283529160200191610d52565b820191906000526020600020905b815481529060010190602001808311610d3557829003601f168201915b50505050508152602001600282015481526020016003820160009054906101000a900461ffff1661ffff1661ffff168152505081526020019060010190610c50565b5050505081525050828281518110610daf57610dae614eef565b5b60200260200101819052508080610dc590614fd9565b915050610822565b508091505090565b6060600082604051602001610dea91906150bd565b604051602081830303815290604052805190602001209050600060016000838152602001908152602001600020905080600701805480602002602001604051908101604052809291908181526020016000905b82821015610f8157838290600052602060002090600402016040518060800160405290816000820160009054906101000a900473ffffffffffffffffffffffffffffffffffffffff1673ffffffffffffffffffffffffffffffffffffffff1673ffffffffffffffffffffffffffffffffffffffff168152602001600182018054610ec690615050565b80601f0160208091040260200160405190810160405280929190818152602001828054610ef290615050565b8015610f3f5780601f10610f1457610100808354040283529160200191610f3f565b820191906000526020600020905b815481529060010190602001808311610f2257829003601f168201915b50505050508152602001600282015481526020016003820160009054906101000a900461ffff1661ffff1661ffff168152505081526020019060010190610e3d565b5050505092505050919050565b60035481565b600088604051602001610fa791906150bd565b60405160208183030381529060405280519060200120905060006040518061012001604052808b81526020018a73ffffffffffffffffffffffffffffffffffffffff168152602001898152602001888152602001878152602001868152602001858152602001848152602001600067ffffffffffffffff81111561102e5761102d613c82565b5b60405190808252806020026020018201604052801561106157816020015b606081526020019060019003908161104c5790505b508152509050806002600084815260200190815260200160002060008201518160000190816110909190615280565b5060208201518160010160006101000a81548173ffffffffffffffffffffffffffffffffffffffff021916908373ffffffffffffffffffffffffffffffffffffffff16021790555060408201518160020190816110ed9190615280565b5060608201518160030190816111039190615280565b5060808201518160040190816111199190615280565b5060a082015181600501908161112f9190615280565b5060c08201518160060190816111459190615280565b5060e082015181600701908161115b9190615280565b50610100820151816008019080519060200190611179929190613a29565b509050506007829080600181540180825580915050600190039060005260206000200160009091909190915055600560008154809291906111b990614fd9565b91905055508873ffffffffffffffffffffffffffffffffffffffff16827fd772ba1e4c44d5f21876056bf41fb9b08d0b4d6241fbdead72b76acf8a35ed35886040516112059190614e3b565b60405180910390a350505050505050505050565b60045481565b60008160405160200161123291906150bd565b6040516020818303038152906040528051906020012090506000600160008381526020019081526020016000209050600080600084815260200190815260200160002060003373ffffffffffffffffffffffffffffffffffffffff1673ffffffffffffffffffffffffffffffffffffffff1681526020019081526020016000205490506000810361143057600060405180608001604052803373ffffffffffffffffffffffffffffffffffffffff168152602001868152602001348152602001600161ffff1681525090508260070181908060018154018082558091505060019003906000526020600020906004020160009091909190915060008201518160000160006101000a81548173ffffffffffffffffffffffffffffffffffffffff021916908373ffffffffffffffffffffffffffffffffffffffff16021790555060208201518160010190816113879190615280565b506040820151816002015560608201518160030160006101000a81548161ffff021916908361ffff1602179055505050826007018054905060008086815260200190815260200160002060003373ffffffffffffffffffffffffffffffffffffffff1673ffffffffffffffffffffffffffffffffffffffff168152602001908152602001600020819055506004600081548092919061142590614fd9565b9190505550506114e7565b34826007016001836114429190614f4d565b8154811061145357611452614eef565b5b906000526020600020906004020160020160008282546114739190615352565b925050819055508160070160018261148b9190614f4d565b8154811061149c5761149b614eef565b5b9060005260206000209060040201600301600081819054906101000a900461ffff16809291906114cb90615386565b91906101000a81548161ffff021916908361ffff160217905550505b60008573ffffffffffffffffffffffffffffffffffffffff163460405161150d906153e1565b60006040518083038185875af1925050503d806000811461154a576040519150601f19603f3d011682016040523d82523d6000602084013e61154f565b606091505b5050905080611593576040517f08c379a000000000000000000000000000000000000000000000000000000000815260040161158a90615468565b60405180910390fd5b505050505050565b60008073ffffffffffffffffffffffffffffffffffffffff166001600084815260200190815260200160002060010160009054906101000a900473ffffffffffffffffffffffffffffffffffffffff1673ffffffffffffffffffffffffffffffffffffffff1614159050919050565b6060600060055467ffffffffffffffff81111561162a57611629613c82565b5b60405190808252806020026020018201604052801561166357816020015b611650613a82565b8152602001906001900390816116485790505b50905060005b600554811015611c0e57600260006007838154811061168b5761168a614eef565b5b90600052602060002001548152602001908152602001600020604051806101200160405290816000820180546116c090615050565b80601f01602080910402602001604051908101604052809291908181526020018280546116ec90615050565b80156117395780601f1061170e57610100808354040283529160200191611739565b820191906000526020600020905b81548152906001019060200180831161171c57829003601f168201915b505050505081526020016001820160009054906101000a900473ffffffffffffffffffffffffffffffffffffffff1673ffffffffffffffffffffffffffffffffffffffff1673ffffffffffffffffffffffffffffffffffffffff1681526020016002820180546117a890615050565b80601f01602080910402602001604051908101604052809291908181526020018280546117d490615050565b80156118215780601f106117f657610100808354040283529160200191611821565b820191906000526020600020905b81548152906001019060200180831161180457829003601f168201915b5050505050815260200160038201805461183a90615050565b80601f016020809104026020016040519081016040528092919081815260200182805461186690615050565b80156118b35780601f10611888576101008083540402835291602001916118b3565b820191906000526020600020905b81548152906001019060200180831161189657829003601f168201915b505050505081526020016004820180546118cc90615050565b80601f01602080910402602001604051908101604052809291908181526020018280546118f890615050565b80156119455780601f1061191a57610100808354040283529160200191611945565b820191906000526020600020905b81548152906001019060200180831161192857829003601f168201915b5050505050815260200160058201805461195e90615050565b80601f016020809104026020016040519081016040528092919081815260200182805461198a90615050565b80156119d75780601f106119ac576101008083540402835291602001916119d7565b820191906000526020600020905b8154815290600101906020018083116119ba57829003601f168201915b505050505081526020016006820180546119f090615050565b80601f0160208091040260200160405190810160405280929190818152602001828054611a1c90615050565b8015611a695780601f10611a3e57610100808354040283529160200191611a69565b820191906000526020600020905b815481529060010190602001808311611a4c57829003601f168201915b50505050508152602001600782018054611a8290615050565b80601f0160208091040260200160405190810160405280929190818152602001828054611aae90615050565b8015611afb5780601f10611ad057610100808354040283529160200191611afb565b820191906000526020600020905b815481529060010190602001808311611ade57829003601f168201915b5050505050815260200160088201805480602002602001604051908101604052809291908181526020016000905b82821015611bd5578382906000526020600020018054611b4890615050565b80601f0160208091040260200160405190810160405280929190818152602001828054611b7490615050565b8015611bc15780601f10611b9657610100808354040283529160200191611bc1565b820191906000526020600020905b815481529060010190602001808311611ba457829003601f168201915b505050505081526020019060010190611b29565b5050505081525050828281518110611bf057611bef614eef565b5b60200260200101819052508080611c0690614fd9565b915050611669565b508091505090565b611c1e613a82565b600082604051602001611c3191906150bd565b6040516020818303038152906040528051906020012090506002600082815260200190815260200160002060405180610120016040529081600082018054611c7890615050565b80601f0160208091040260200160405190810160405280929190818152602001828054611ca490615050565b8015611cf15780601f10611cc657610100808354040283529160200191611cf1565b820191906000526020600020905b815481529060010190602001808311611cd457829003601f168201915b505050505081526020016001820160009054906101000a900473ffffffffffffffffffffffffffffffffffffffff1673ffffffffffffffffffffffffffffffffffffffff1673ffffffffffffffffffffffffffffffffffffffff168152602001600282018054611d6090615050565b80601f0160208091040260200160405190810160405280929190818152602001828054611d8c90615050565b8015611dd95780601f10611dae57610100808354040283529160200191611dd9565b820191906000526020600020905b815481529060010190602001808311611dbc57829003601f168201915b50505050508152602001600382018054611df290615050565b80601f0160208091040260200160405190810160405280929190818152602001828054611e1e90615050565b8015611e6b5780601f10611e4057610100808354040283529160200191611e6b565b820191906000526020600020905b815481529060010190602001808311611e4e57829003601f168201915b50505050508152602001600482018054611e8490615050565b80601f0160208091040260200160405190810160405280929190818152602001828054611eb090615050565b8015611efd5780601f10611ed257610100808354040283529160200191611efd565b820191906000526020600020905b815481529060010190602001808311611ee057829003601f168201915b50505050508152602001600582018054611f1690615050565b80601f0160208091040260200160405190810160405280929190818152602001828054611f4290615050565b8015611f8f5780601f10611f6457610100808354040283529160200191611f8f565b820191906000526020600020905b815481529060010190602001808311611f7257829003601f168201915b50505050508152602001600682018054611fa890615050565b80601f0160208091040260200160405190810160405280929190818152602001828054611fd490615050565b80156120215780601f10611ff657610100808354040283529160200191612021565b820191906000526020600020905b81548152906001019060200180831161200457829003601f168201915b5050505050815260200160078201805461203a90615050565b80601f016020809104026020016040519081016040528092919081815260200182805461206690615050565b80156120b35780601f10612088576101008083540402835291602001916120b3565b820191906000526020600020905b81548152906001019060200180831161209657829003601f168201915b5050505050815260200160088201805480602002602001604051908101604052809291908181526020016000905b8282101561218d57838290600052602060002001805461210090615050565b80601f016020809104026020016040519081016040528092919081815260200182805461212c90615050565b80156121795780601f1061214e57610100808354040283529160200191612179565b820191906000526020600020905b81548152906001019060200180831161215c57829003601f168201915b5050505050815260200190600101906120e1565b5050505081525050915050919050565b6121a56139ce565b60008280519060200120905060006001600083815260200190815260200160002090508380519060200120816000016040516121e19190615520565b60405180910390200361282d5760008160070180549050905060008167ffffffffffffffff81111561221657612215613c82565b5b6040519080825280602002602001820160405280156122445781602001602082028036833780820191505090505b50905060005b828110156122fa5783600701818154811061226857612267614eef565b5b906000526020600020906004020160000160009054906101000a900473ffffffffffffffffffffffffffffffffffffffff168282815181106122ad576122ac614eef565b5b602002602001019073ffffffffffffffffffffffffffffffffffffffff16908173ffffffffffffffffffffffffffffffffffffffff168152505080806122f290614fd9565b91505061224a565b5060405180610100016040528084600001805461231690615050565b80601f016020809104026020016040519081016040528092919081815260200182805461234290615050565b801561238f5780601f106123645761010080835404028352916020019161238f565b820191906000526020600020905b81548152906001019060200180831161237257829003601f168201915b505050505081526020018460010160009054906101000a900473ffffffffffffffffffffffffffffffffffffffff1673ffffffffffffffffffffffffffffffffffffffff1681526020018460020180546123e890615050565b80601f016020809104026020016040519081016040528092919081815260200182805461241490615050565b80156124615780601f1061243657610100808354040283529160200191612461565b820191906000526020600020905b81548152906001019060200180831161244457829003601f168201915b5050505050815260200184600301805461247a90615050565b80601f01602080910402602001604051908101604052809291908181526020018280546124a690615050565b80156124f35780601f106124c8576101008083540402835291602001916124f3565b820191906000526020600020905b8154815290600101906020018083116124d657829003601f168201915b5050505050815260200184600401805461250c90615050565b80601f016020809104026020016040519081016040528092919081815260200182805461253890615050565b80156125855780601f1061255a57610100808354040283529160200191612585565b820191906000526020600020905b81548152906001019060200180831161256857829003601f168201915b5050505050815260200184600501805461259e90615050565b80601f01602080910402602001604051908101604052809291908181526020018280546125ca90615050565b80156126175780601f106125ec57610100808354040283529160200191612617565b820191906000526020600020905b8154815290600101906020018083116125fa57829003601f168201915b5050505050815260200184600601805461263090615050565b80601f016020809104026020016040519081016040528092919081815260200182805461265c90615050565b80156126a95780601f1061267e576101008083540402835291602001916126a9565b820191906000526020600020905b81548152906001019060200180831161268c57829003601f168201915b5050505050815260200184600701805480602002602001604051908101604052809291908181526020016000905b8282101561281b57838290600052602060002090600402016040518060800160405290816000820160009054906101000a900473ffffffffffffffffffffffffffffffffffffffff1673ffffffffffffffffffffffffffffffffffffffff1673ffffffffffffffffffffffffffffffffffffffff16815260200160018201805461276090615050565b80601f016020809104026020016040519081016040528092919081815260200182805461278c90615050565b80156127d95780601f106127ae576101008083540402835291602001916127d9565b820191906000526020600020905b8154815290600101906020018083116127bc57829003601f168201915b50505050508152602001600282015481526020016003820160009054906101000a900461ffff1661ffff1661ffff1681525050815260200190600101906126d7565b50505050815250945050505050612931565b604051806101000160405280604051806020016040528060008152508152602001600073ffffffffffffffffffffffffffffffffffffffff168152602001604051806020016040528060008152508152602001604051806020016040528060008152508152602001604051806020016040528060008152508152602001604051806020016040528060008152508152602001604051806020016040528060008152508152602001600067ffffffffffffffff8111156128ef576128ee613c82565b5b60405190808252806020026020018201604052801561292857816020015b612915613ae4565b81526020019060019003908161290d5790505b50815250925050505b919050565b6006818154811061294657600080fd5b906000526020600020016000915090505481565b600260205280600052604060002060009150905080600001805461297d90615050565b80601f01602080910402602001604051908101604052809291908181526020018280546129a990615050565b80156129f65780601f106129cb576101008083540402835291602001916129f6565b820191906000526020600020905b8154815290600101906020018083116129d957829003601f168201915b5050505050908060010160009054906101000a900473ffffffffffffffffffffffffffffffffffffffff1690806002018054612a3190615050565b80601f0160208091040260200160405190810160405280929190818152602001828054612a5d90615050565b8015612aaa5780601f10612a7f57610100808354040283529160200191612aaa565b820191906000526020600020905b815481529060010190602001808311612a8d57829003601f168201915b505050505090806003018054612abf90615050565b80601f0160208091040260200160405190810160405280929190818152602001828054612aeb90615050565b8015612b385780601f10612b0d57610100808354040283529160200191612b38565b820191906000526020600020905b815481529060010190602001808311612b1b57829003601f168201915b505050505090806004018054612b4d90615050565b80601f0160208091040260200160405190810160405280929190818152602001828054612b7990615050565b8015612bc65780601f10612b9b57610100808354040283529160200191612bc6565b820191906000526020600020905b815481529060010190602001808311612ba957829003601f168201915b505050505090806005018054612bdb90615050565b80601f0160208091040260200160405190810160405280929190818152602001828054612c0790615050565b8015612c545780601f10612c2957610100808354040283529160200191612c54565b820191906000526020600020905b815481529060010190602001808311612c3757829003601f168201915b505050505090806006018054612c6990615050565b80601f0160208091040260200160405190810160405280929190818152602001828054612c9590615050565b8015612ce25780601f10612cb757610100808354040283529160200191612ce2565b820191906000526020600020905b815481529060010190602001808311612cc557829003601f168201915b505050505090806007018054612cf790615050565b80601f0160208091040260200160405190810160405280929190818152602001828054612d2390615050565b8015612d705780601f10612d4557610100808354040283529160200191612d70565b820191906000526020600020905b815481529060010190602001808311612d5357829003601f168201915b5050505050905088565b60055481565b60078181548110612d9057600080fd5b906000526020600020016000915090505481565b6001602052806000526040600020600091509050806000018054612dc790615050565b80601f0160208091040260200160405190810160405280929190818152602001828054612df390615050565b8015612e405780601f10612e1557610100808354040283529160200191612e40565b820191906000526020600020905b815481529060010190602001808311612e2357829003601f168201915b5050505050908060010160009054906101000a900473ffffffffffffffffffffffffffffffffffffffff1690806002018054612e7b90615050565b80601f0160208091040260200160405190810160405280929190818152602001828054612ea790615050565b8015612ef45780601f10612ec957610100808354040283529160200191612ef4565b820191906000526020600020905b815481529060010190602001808311612ed757829003601f168201915b505050505090806003018054612f0990615050565b80601f0160208091040260200160405190810160405280929190818152602001828054612f3590615050565b8015612f825780601f10612f5757610100808354040283529160200191612f82565b820191906000526020600020905b815481529060010190602001808311612f6557829003601f168201915b505050505090806004018054612f9790615050565b80601f0160208091040260200160405190810160405280929190818152602001828054612fc390615050565b80156130105780601f10612fe557610100808354040283529160200191613010565b820191906000526020600020905b815481529060010190602001808311612ff357829003601f168201915b50505050509080600501805461302590615050565b80601f016020809104026020016040519081016040528092919081815260200182805461305190615050565b801561309e5780601f106130735761010080835404028352916020019161309e565b820191906000526020600020905b81548152906001019060200180831161308157829003601f168201915b5050505050908060060180546130b390615050565b80601f01602080910402602001604051908101604052809291908181526020018280546130df90615050565b801561312c5780601f106131015761010080835404028352916020019161312c565b820191906000526020600020905b81548152906001019060200180831161310f57829003601f168201915b5050505050905087565b60008260405160200161314991906150bd565b604051602081830303815290604052805190602001209050600060026000838152602001908152602001600020905080600801839080600181540180825580915050600190039060005260206000200160009091909190915090816131ae9190615280565b5080600801600260008481526020019081526020016000206008019080546131d7929190613b26565b506000836040516020016131eb91906150bd565b60405160208183030381529060405280519060200120905080837f078b4d4d13227ded38598410a30cda631a17d56b80186a8d8a81723b2e88837060405160405180910390a380837f078b4d4d13227ded38598410a30cda631a17d56b80186a8d8a81723b2e88837060405160405180910390a35050505050565b6060600060045467ffffffffffffffff81111561328657613285613c82565b5b6040519080825280602002602001820160405280156132bf57816020015b6132ac613ae4565b8152602001906001900390816132a45790505b5090506000805b6006805490508110156134b5576000600682815481106132e9576132e8614eef565b5b90600052602060002001549050600060016000838152602001908152602001600020905060005b816007018054905081101561349f5781600701818154811061333557613334614eef565b5b90600052602060002090600402016040518060800160405290816000820160009054906101000a900473ffffffffffffffffffffffffffffffffffffffff1673ffffffffffffffffffffffffffffffffffffffff1673ffffffffffffffffffffffffffffffffffffffff1681526020016001820180546133b490615050565b80601f01602080910402602001604051908101604052809291908181526020018280546133e090615050565b801561342d5780601f106134025761010080835404028352916020019161342d565b820191906000526020600020905b81548152906001019060200180831161341057829003601f168201915b50505050508152602001600282015481526020016003820160009054906101000a900461ffff1661ffff1661ffff168152505086868151811061347357613472614eef565b5b6020026020010181905250848061348990614fd9565b955050808061349790614fd9565b915050613310565b50505080806134ad90614fd9565b9150506132c6565b50819250505090565b60606000875111613504576040517f08c379a00000000000000000000000000000000000000000000000000000000081526004016134fb90615583565b60405180910390fd5b60008760405160200161351791906150bd565b604051602081830303815290604052805190602001209050600073ffffffffffffffffffffffffffffffffffffffff166001600083815260200190815260200160002060010160009054906101000a900473ffffffffffffffffffffffffffffffffffffffff1673ffffffffffffffffffffffffffffffffffffffff16146135d4576040517f08c379a00000000000000000000000000000000000000000000000000000000081526004016135cb90615615565b60405180910390fd5b6000600160008381526020019081526020016000209050888160000190816135fc9190615280565b50338160010160006101000a81548173ffffffffffffffffffffffffffffffffffffffff021916908373ffffffffffffffffffffffffffffffffffffffff160217905550878160020190816136519190615280565b50868160030190816136639190615280565b50858160040190816136759190615280565b50848160050190816136879190615280565b50838160060190816136999190615280565b506006829080600181540180825580915050600190039060005260206000200160009091909190915055600360008154809291906136d690614fd9565b919050555088925050509695505050505050565b6000818051906020012090506136ff8161159b565b61373e576040517f08c379a000000000000000000000000000000000000000000000000000000000815260040161373590615681565b60405180910390fd5b6001600082815260200190815260200160002060010160009054906101000a900473ffffffffffffffffffffffffffffffffffffffff1673ffffffffffffffffffffffffffffffffffffffff163373ffffffffffffffffffffffffffffffffffffffff16146137e2576040517f08c379a00000000000000000000000000000000000000000000000000000000081526004016137d990615713565b60405180910390fd5b6001600082815260200190815260200160002060008082016000613806919061396d565b6001820160006101000a81549073ffffffffffffffffffffffffffffffffffffffff021916905560028201600061383d919061396d565b60038201600061384d919061396d565b60048201600061385d919061396d565b60058201600061386d919061396d565b60068201600061387d919061396d565b60078201600061388d9190613b83565b505060005b6003548110156139685781600682815481106138b1576138b0614eef565b5b90600052602060002001540361395557600660016003546138d29190614f4d565b815481106138e3576138e2614eef565b5b90600052602060002001546006828154811061390257613901614eef565b5b9060005260206000200181905550600680548061392257613921614f81565b5b600190038181906000526020600020016000905590556003600081548092919061394b90614fb0565b9190505550613968565b808061396090614fd9565b915050613892565b505050565b50805461397990615050565b6000825580601f1061398b57506139aa565b601f0160209004906000526020600020908101906139a99190613ba7565b5b50565b50805460008255906000526020600020908101906139cb9190613bc4565b50565b60405180610100016040528060608152602001600073ffffffffffffffffffffffffffffffffffffffff1681526020016060815260200160608152602001606081526020016060815260200160608152602001606081525090565b828054828255906000526020600020908101928215613a71579160200282015b82811115613a70578251829081613a609190615280565b5091602001919060010190613a49565b5b509050613a7e9190613bc4565b5090565b60405180610120016040528060608152602001600073ffffffffffffffffffffffffffffffffffffffff168152602001606081526020016060815260200160608152602001606081526020016060815260200160608152602001606081525090565b6040518060800160405280600073ffffffffffffffffffffffffffffffffffffffff1681526020016060815260200160008152602001600061ffff1681525090565b828054828255906000526020600020908101928215613b725760005260206000209182015b82811115613b715782829081613b619190615749565b5091600101919060010190613b4b565b5b509050613b7f9190613bc4565b5090565b5080546000825560040290600052602060002090810190613ba49190613be8565b50565b5b80821115613bc0576000816000905550600101613ba8565b5090565b5b80821115613be45760008181613bdb919061396d565b50600101613bc5565b5090565b5b80821115613c4f57600080820160006101000a81549073ffffffffffffffffffffffffffffffffffffffff0219169055600182016000613c29919061396d565b60028201600090556003820160006101000a81549061ffff021916905550600401613be9565b5090565b6000604051905090565b600080fd5b600080fd5b600080fd5b600080fd5b6000601f19601f8301169050919050565b7f4e487b7100000000000000000000000000000000000000000000000000000000600052604160045260246000fd5b613cba82613c71565b810181811067ffffffffffffffff82111715613cd957613cd8613c82565b5b80604052505050565b6000613cec613c53565b9050613cf88282613cb1565b919050565b600067ffffffffffffffff821115613d1857613d17613c82565b5b613d2182613c71565b9050602081019050919050565b82818337600083830152505050565b6000613d50613d4b84613cfd565b613ce2565b905082815260208101848484011115613d6c57613d6b613c6c565b5b613d77848285613d2e565b509392505050565b600082601f830112613d9457613d93613c67565b5b8135613da4848260208601613d3d565b91505092915050565b600060208284031215613dc357613dc2613c5d565b5b600082013567ffffffffffffffff811115613de157613de0613c62565b5b613ded84828501613d7f565b91505092915050565b6000819050919050565b613e0981613df6565b8114613e1457600080fd5b50565b600081359050613e2681613e00565b92915050565b600073ffffffffffffffffffffffffffffffffffffffff82169050919050565b6000613e5782613e2c565b9050919050565b613e6781613e4c565b8114613e7257600080fd5b50565b600081359050613e8481613e5e565b92915050565b60008060408385031215613ea157613ea0613c5d565b5b6000613eaf85828601613e17565b9250506020613ec085828601613e75565b9150509250929050565b6000819050919050565b613edd81613eca565b82525050565b6000602082019050613ef86000830184613ed4565b92915050565b600081519050919050565b600082825260208201905092915050565b6000819050602082019050919050565b600081519050919050565b600082825260208201905092915050565b60005b83811015613f64578082015181840152602081019050613f49565b60008484015250505050565b6000613f7b82613f2a565b613f858185613f35565b9350613f95818560208601613f46565b613f9e81613c71565b840191505092915050565b613fb281613e4c565b82525050565b600081519050919050565b600082825260208201905092915050565b6000819050602082019050919050565b613fed81613eca565b82525050565b600061ffff82169050919050565b61400a81613ff3565b82525050565b60006080830160008301516140286000860182613fa9565b50602083015184820360208601526140408282613f70565b91505060408301516140556040860182613fe4565b5060608301516140686060860182614001565b508091505092915050565b600061407f8383614010565b905092915050565b6000602082019050919050565b600061409f82613fb8565b6140a98185613fc3565b9350836020820285016140bb85613fd4565b8060005b858110156140f757848403895281516140d88582614073565b94506140e383614087565b925060208a019950506001810190506140bf565b50829750879550505050505092915050565b60006101008301600083015184820360008601526141278282613f70565b915050602083015161413c6020860182613fa9565b50604083015184820360408601526141548282613f70565b9150506060830151848203606086015261416e8282613f70565b915050608083015184820360808601526141888282613f70565b91505060a083015184820360a08601526141a28282613f70565b91505060c083015184820360c08601526141bc8282613f70565b91505060e083015184820360e08601526141d68282614094565b9150508091505092915050565b60006141ef8383614109565b905092915050565b6000602082019050919050565b600061420f82613efe565b6142198185613f09565b93508360208202850161422b85613f1a565b8060005b85811015614267578484038952815161424885826141e3565b9450614253836141f7565b925060208a0199505060018101905061422f565b50829750879550505050505092915050565b600060208201905081810360008301526142938184614204565b905092915050565b600082825260208201905092915050565b60006142b782613fb8565b6142c1818561429b565b9350836020820285016142d385613fd4565b8060005b8581101561430f57848403895281516142f08582614073565b94506142fb83614087565b925060208a019950506001810190506142d7565b50829750879550505050505092915050565b6000602082019050818103600083015261433b81846142ac565b905092915050565b600080600080600080600080610100898b03121561436457614363613c5d565b5b600089013567ffffffffffffffff81111561438257614381613c62565b5b61438e8b828c01613d7f565b985050602061439f8b828c01613e75565b975050604089013567ffffffffffffffff8111156143c0576143bf613c62565b5b6143cc8b828c01613d7f565b965050606089013567ffffffffffffffff8111156143ed576143ec613c62565b5b6143f98b828c01613d7f565b955050608089013567ffffffffffffffff81111561441a57614419613c62565b5b6144268b828c01613d7f565b94505060a089013567ffffffffffffffff81111561444757614446613c62565b5b6144538b828c01613d7f565b93505060c089013567ffffffffffffffff81111561447457614473613c62565b5b6144808b828c01613d7f565b92505060e089013567ffffffffffffffff8111156144a1576144a0613c62565b5b6144ad8b828c01613d7f565b9150509295985092959890939650565b60006144c882613e2c565b9050919050565b6144d8816144bd565b81146144e357600080fd5b50565b6000813590506144f5816144cf565b92915050565b6000806040838503121561451257614511613c5d565b5b6000614520858286016144e6565b925050602083013567ffffffffffffffff81111561454157614540613c62565b5b61454d85828601613d7f565b9150509250929050565b60006020828403121561456d5761456c613c5d565b5b600061457b84828501613e17565b91505092915050565b60008115159050919050565b61459981614584565b82525050565b60006020820190506145b46000830184614590565b92915050565b600081519050919050565b600082825260208201905092915050565b6000819050602082019050919050565b600081519050919050565b600082825260208201905092915050565b6000819050602082019050919050565b600061461e8383613f70565b905092915050565b6000602082019050919050565b600061463e826145e6565b61464881856145f1565b93508360208202850161465a85614602565b8060005b8581101561469657848403895281516146778582614612565b945061468283614626565b925060208a0199505060018101905061465e565b50829750879550505050505092915050565b60006101208301600083015184820360008601526146c68282613f70565b91505060208301516146db6020860182613fa9565b50604083015184820360408601526146f38282613f70565b9150506060830151848203606086015261470d8282613f70565b915050608083015184820360808601526147278282613f70565b91505060a083015184820360a08601526147418282613f70565b91505060c083015184820360c086015261475b8282613f70565b91505060e083015184820360e08601526147758282613f70565b9150506101008301518482036101008601526147918282614633565b9150508091505092915050565b60006147aa83836146a8565b905092915050565b6000602082019050919050565b60006147ca826145ba565b6147d481856145c5565b9350836020820285016147e6856145d6565b8060005b858110156148225784840389528151614803858261479e565b945061480e836147b2565b925060208a019950506001810190506147ea565b50829750879550505050505092915050565b6000602082019050818103600083015261484e81846147bf565b905092915050565b60006101208301600083015184820360008601526148748282613f70565b91505060208301516148896020860182613fa9565b50604083015184820360408601526148a18282613f70565b915050606083015184820360608601526148bb8282613f70565b915050608083015184820360808601526148d58282613f70565b91505060a083015184820360a08601526148ef8282613f70565b91505060c083015184820360c08601526149098282613f70565b91505060e083015184820360e08601526149238282613f70565b91505061010083015184820361010086015261493f8282614633565b9150508091505092915050565b600060208201905081810360008301526149668184614856565b905092915050565b600061010083016000830151848203600086015261498c8282613f70565b91505060208301516149a16020860182613fa9565b50604083015184820360408601526149b98282613f70565b915050606083015184820360608601526149d38282613f70565b915050608083015184820360808601526149ed8282613f70565b91505060a083015184820360a0860152614a078282613f70565b91505060c083015184820360c0860152614a218282613f70565b91505060e083015184820360e0860152614a3b8282614094565b9150508091505092915050565b60006020820190508181036000830152614a62818461496e565b905092915050565b614a7381613eca565b8114614a7e57600080fd5b50565b600081359050614a9081614a6a565b92915050565b600060208284031215614aac57614aab613c5d565b5b6000614aba84828501614a81565b91505092915050565b614acc81613df6565b82525050565b6000602082019050614ae76000830184614ac3565b92915050565b600082825260208201905092915050565b6000614b0982613f2a565b614b138185614aed565b9350614b23818560208601613f46565b614b2c81613c71565b840191505092915050565b614b4081613e4c565b82525050565b6000610100820190508181036000830152614b61818b614afe565b9050614b70602083018a614b37565b8181036040830152614b828189614afe565b90508181036060830152614b968188614afe565b90508181036080830152614baa8187614afe565b905081810360a0830152614bbe8186614afe565b905081810360c0830152614bd28185614afe565b905081810360e0830152614be68184614afe565b90509998505050505050505050565b600060e0820190508181036000830152614c0f818a614afe565b9050614c1e6020830189614b37565b8181036040830152614c308188614afe565b90508181036060830152614c448187614afe565b90508181036080830152614c588186614afe565b905081810360a0830152614c6c8185614afe565b905081810360c0830152614c808184614afe565b905098975050505050505050565b60008060408385031215614ca557614ca4613c5d565b5b600083013567ffffffffffffffff811115614cc357614cc2613c62565b5b614ccf85828601613d7f565b925050602083013567ffffffffffffffff811115614cf057614cef613c62565b5b614cfc85828601613d7f565b9150509250929050565b60008060008060008060c08789031215614d2357614d22613c5d565b5b600087013567ffffffffffffffff811115614d4157614d40613c62565b5b614d4d89828a01613d7f565b965050602087013567ffffffffffffffff811115614d6e57614d6d613c62565b5b614d7a89828a01613d7f565b955050604087013567ffffffffffffffff811115614d9b57614d9a613c62565b5b614da789828a01613d7f565b945050606087013567ffffffffffffffff811115614dc857614dc7613c62565b5b614dd489828a01613d7f565b935050608087013567ffffffffffffffff811115614df557614df4613c62565b5b614e0189828a01613d7f565b92505060a087013567ffffffffffffffff811115614e2257614e21613c62565b5b614e2e89828a01613d7f565b9150509295509295509295565b60006020820190508181036000830152614e558184614afe565b905092915050565b7f4f6e6c7920746865206f776e65722063616e2064656c6574652074686973206360008201527f6f6c6c656374696f6e0000000000000000000000000000000000000000000000602082015250565b6000614eb9602983614aed565b9150614ec482614e5d565b604082019050919050565b60006020820190508181036000830152614ee881614eac565b9050919050565b7f4e487b7100000000000000000000000000000000000000000000000000000000600052603260045260246000fd5b7f4e487b7100000000000000000000000000000000000000000000000000000000600052601160045260246000fd5b6000614f5882613eca565b9150614f6383613eca565b9250828203905081811115614f7b57614f7a614f1e565b5b92915050565b7f4e487b7100000000000000000000000000000000000000000000000000000000600052603160045260246000fd5b6000614fbb82613eca565b915060008203614fce57614fcd614f1e565b5b600182039050919050565b6000614fe482613eca565b91507fffffffffffffffffffffffffffffffffffffffffffffffffffffffffffffffff820361501657615015614f1e565b5b600182019050919050565b7f4e487b7100000000000000000000000000000000000000000000000000000000600052602260045260246000fd5b6000600282049050600182168061506857607f821691505b60208210810361507b5761507a615021565b5b50919050565b600081905092915050565b600061509782613f2a565b6150a18185615081565b93506150b1818560208601613f46565b80840191505092915050565b60006150c9828461508c565b915081905092915050565b60008190508160005260206000209050919050565b60006020601f8301049050919050565b600082821b905092915050565b6000600883026151367fffffffffffffffffffffffffffffffffffffffffffffffffffffffffffffffff826150f9565b61514086836150f9565b95508019841693508086168417925050509392505050565b6000819050919050565b600061517d61517861517384613eca565b615158565b613eca565b9050919050565b6000819050919050565b61519783615162565b6151ab6151a382615184565b848454615106565b825550505050565b600090565b6151c06151b3565b6151cb81848461518e565b505050565b5b818110156151ef576151e46000826151b8565b6001810190506151d1565b5050565b601f82111561523457615205816150d4565b61520e846150e9565b8101602085101561521d578190505b615231615229856150e9565b8301826151d0565b50505b505050565b600082821c905092915050565b600061525760001984600802615239565b1980831691505092915050565b60006152708383615246565b9150826002028217905092915050565b61528982613f2a565b67ffffffffffffffff8111156152a2576152a1613c82565b5b6152ac8254615050565b6152b78282856151f3565b600060209050601f8311600181146152ea57600084156152d8578287015190505b6152e28582615264565b86555061534a565b601f1984166152f8866150d4565b60005b82811015615320578489015182556001820191506020850194506020810190506152fb565b8683101561533d5784890151615339601f891682615246565b8355505b6001600288020188555050505b505050505050565b600061535d82613eca565b915061536883613eca565b92508282019050808211156153805761537f614f1e565b5b92915050565b600061539182613ff3565b915061ffff82036153a5576153a4614f1e565b5b600182019050919050565b600081905092915050565b50565b60006153cb6000836153b0565b91506153d6826153bb565b600082019050919050565b60006153ec826153be565b9150819050919050565b7f4574686572207472616e7366657220746f206173736574206f776e657220666160008201527f696c65642e000000000000000000000000000000000000000000000000000000602082015250565b6000615452602583614aed565b915061545d826153f6565b604082019050919050565b6000602082019050818103600083015261548181615445565b9050919050565b60008190508160005260206000209050919050565b600081546154aa81615050565b6154b481866153b0565b945060018216600081146154cf57600181146154e457615517565b60ff1983168652811515820286019350615517565b6154ed85615488565b60005b8381101561550f578154818901526001820191506020810190506154f0565b838801955050505b50505092915050565b600061552c828461549d565b915081905092915050565b7f49442063616e6e6f7420626520656d7074790000000000000000000000000000600082015250565b600061556d601283614aed565b915061557882615537565b602082019050919050565b6000602082019050818103600083015261559c81615560565b9050919050565b7f41737365742077697468207468697320494420616c726561647920657869737460008201527f7300000000000000000000000000000000000000000000000000000000000000602082015250565b60006155ff602183614aed565b915061560a826155a3565b604082019050919050565b6000602082019050818103600083015261562e816155f2565b9050919050565b7f417373657420646f6573206e6f74206578697374000000000000000000000000600082015250565b600061566b601483614aed565b915061567682615635565b602082019050919050565b6000602082019050818103600083015261569a8161565e565b9050919050565b7f4f6e6c7920746865206f776e65722063616e2064656c6574652074686973206160008201527f7373657400000000000000000000000000000000000000000000000000000000602082015250565b60006156fd602483614aed565b9150615708826156a1565b604082019050919050565b6000602082019050818103600083015261572c816156f0565b9050919050565b60008154905061574281615050565b9050919050565b81810361575757505061582f565b61576082615733565b67ffffffffffffffff81111561577957615778613c82565b5b6157838254615050565b61578e8282856151f3565b6000601f8311600181146157bd57600084156157ab578287015490505b6157b58582615264565b865550615828565b601f1984166157cb876150d4565b96506157d6866150d4565b60005b828110156157fe578489015482556001820191506001850194506020810190506157d9565b8683101561581b5784890154615817601f891682615246565b8355505b6001600288020188555050505b5050505050505b56fea2646970667358221220dab7b0dafea532bdc27bb180b5b5228c6f1955fa10de9c7618b3047efe9cb6a364736f6c63430008130033",
  "immutableReferences": {},
  "source": "// SPDX-License-Identifier: UNLICENSED\npragma solidity ^0.8.9;\n\ncontract MetaDisplay {\n    struct Collections {\n        string _id;\n        address owner;\n        string profile;\n        string cover;\n        string title;\n        string description;\n        string date;\n        string category;\n        string[] assetId;\n    }\n\n    struct Appreciator {\n        address appreciator;\n        string assetId;\n        uint256 amountAppreciated;\n        uint16 appreciationQuantity;\n    }\n\n    struct Assets {\n        string _id;\n        address owner;\n        string title;\n        string description;\n        string image;\n        string category;\n        string date;\n        Appreciator[] appreciators;\n    }\n\n    mapping(bytes32 => mapping(address => uint256))\n    public assetAppreciatorIndex;\n    mapping(bytes32 => Assets) public assets_display;\n    mapping(bytes32 => Collections) public collections;\n    uint256 public no_of_assets = 0;\n    uint256 public no_of_appreciators = 0;\n    uint256 public no_of_collections = 0;\n    bytes32[] public assetIds;\n    bytes32[] public collectionIds;\n\n    event CollectionCreated(bytes32 indexed collectionId, address indexed owner, string title);\n\n    event AssetAdded(bytes32 indexed collectionId, bytes32 indexed assetId);\n\n    function createCollection(string memory _id, address _owner, string memory _profile, string memory _cover, string memory _title, string memory _description, string memory _date, string memory _category) public payable {\n        // Generate a unique ID for the collection\n        bytes32 collectionId = keccak256(abi.encodePacked(_id));\n\n        // Create the collection object\n        Collections memory collection = Collections({\n            _id: _id,\n            owner: _owner,\n            profile: _profile,\n            cover: _cover,\n            title: _title,\n            description: _description,\n            date: _date,\n            category: _category,\n            assetId: new string[](0)\n        });\n\n        // Add the collection to the global collections mapping\n        collections[collectionId] = collection;\n\n        collectionIds.push(collectionId);\n        no_of_collections++;\n\n        // Emit a CollectionCreated event\n        emit CollectionCreated(collectionId, _owner, _title);\n    }\n\n    function getCollectionById(string memory _id) public view returns (Collections memory) {\n        bytes32 collectionId = keccak256(abi.encodePacked(_id));\n        return collections[collectionId];\n    }\n\n    function addAssetToCollection(string memory _id, string memory _assetId) public {\n         bytes32 collectionId = keccak256(abi.encodePacked(_id));\n        // Get the collection from the global collections mapping\n        Collections storage collection = collections[collectionId];\n\n        // Add the asset ID to the collection's assetId array\n        collection.assetId.push(_assetId);\n\n        // Update the collection's assetId field\n        collections[collectionId].assetId = collection.assetId;\n\n        bytes32 assetId = keccak256(abi.encodePacked(_assetId));\n        emit AssetAdded(collectionId, assetId);\n        // Emit an AssetAdded event\n        emit AssetAdded(collectionId, assetId);\n    }\n\n    function getAllCollections() public view returns (Collections[] memory) {\n        Collections[] memory allCollections = new Collections[](\n            no_of_collections\n        );\n        for (uint256 i = 0; i < no_of_collections; i++) {\n            allCollections[i] = collections[collectionIds[i]];\n        }\n        return allCollections;\n    }\n\n    function deleteAssetById(string memory _id) public {\n        bytes32 assetId = keccak256(bytes(_id));\n        require(assetExists(assetId), \"Asset does not exist\");\n        require(\n            msg.sender == assets_display[assetId].owner,\n            \"Only the owner can delete this asset\"\n        );\n        delete assets_display[assetId];\n        for (uint256 i = 0; i < no_of_assets; i++) {\n            if (assetIds[i] == assetId) {\n                assetIds[i] = assetIds[no_of_assets - 1];\n                assetIds.pop();\n                no_of_assets--;\n                break;\n            }\n        }\n    }\n\n    function deleteCollectionById(string memory _id) public {\n        bytes32 collectionId = keccak256(bytes(_id));\n        require(\n            collections[collectionId].owner == msg.sender,\n            \"Only the owner can delete this collection\"\n        );\n        delete collections[collectionId];\n        for (uint256 i = 0; i < no_of_collections; i++) {\n            if (collectionIds[i] == collectionId) {\n                collectionIds[i] = collectionIds[no_of_collections - 1];\n                collectionIds.pop();\n                no_of_collections--;\n                break;\n            }\n        }\n    }\n\n    function createAsset(string memory _id, string memory _title, string memory _description, string memory _image, string memory _category, string memory _date) public returns (string memory) {\n        require(bytes(_id).length > 0, \"ID cannot be empty\");\n\n        bytes32 assetId = keccak256(abi.encodePacked(_id));\n\n        // Check if asset with this ID already exists\n        require(\n            assets_display[assetId].owner == address(0),\n            \"Asset with this ID already exists\"\n        );\n\n        Assets storage asset = assets_display[assetId];\n        asset._id = _id;\n        asset.owner = msg.sender;\n        asset.title = _title;\n        asset.description = _description;\n        asset.image = _image;\n        asset.category = _category;\n        asset.date = _date;\n\n        assetIds.push(assetId);\n        no_of_assets++;\n\n        return _id;\n    }\n\n    function assetExists(bytes32 assetId) public view returns (bool) {\n        return assets_display[assetId].owner != address(0);\n    }\n\n    function getAllAssets() public view returns (Assets[] memory) {\n        Assets[] memory assets = new Assets[](no_of_assets);\n\n        for (uint256 i = 0; i < no_of_assets; i++) {\n            assets[i] = assets_display[assetIds[i]];\n        }\n\n        return assets;\n    }\n\n    function getAssetById(string memory _id) public view returns (Assets memory) {\n        bytes32 key = keccak256(bytes(_id));\n        Assets storage asset = assets_display[key];\n\n        if (keccak256(bytes(asset._id)) == keccak256(bytes(_id))) {\n            // Get the number of appreciators\n            uint256 numAppreciators = asset.appreciators.length;\n\n            // Initialize a new array to store the addresses of the appreciators\n            address[] memory appreciatorAddresses = new address[](\n                numAppreciators\n            );\n\n            // Loop through the appreciators and add their addresses to the array\n            for (uint256 i = 0; i < numAppreciators; i++) {\n                appreciatorAddresses[i] = asset.appreciators[i].appreciator;\n            }\n\n            // Return the asset without the appreciatorAddresses field\n            return\n                Assets({\n                    _id: asset._id,\n                    owner: asset.owner,\n                    title: asset.title,\n                    description: asset.description,\n                    image: asset.image,\n                    category: asset.category,\n                    date: asset.date,\n                    appreciators: asset.appreciators\n                });\n        } else {\n            return\n                Assets({\n                    _id: \"\",\n                    owner: address(0),\n                    title: \"\",\n                    description: \"\",\n                    image: \"\",\n                    category: \"\",\n                    date: \"\",\n                    appreciators: new Appreciator[](0)\n                });\n        }\n    }\n\n    function appreciateAssetById(address payable _receiver, string memory _assetId) public payable {\n        bytes32 assetId = keccak256(abi.encodePacked(_assetId));\n        Assets storage asset = assets_display[assetId];\n\n        uint256 index = assetAppreciatorIndex[assetId][msg.sender];\n        if (index == 0) {\n            Appreciator memory newAppreciator = Appreciator(\n                msg.sender,\n                _assetId,\n                msg.value,\n                1\n            );\n            asset.appreciators.push(newAppreciator);\n            assetAppreciatorIndex[assetId][msg.sender] = asset\n                .appreciators\n                .length;\n\n            // Increment no_of_appreciators\n            no_of_appreciators++;\n        } else {\n            asset.appreciators[index - 1].amountAppreciated += msg.value;\n            asset.appreciators[index - 1].appreciationQuantity++;\n        }\n\n        (bool sent, ) = _receiver.call{value: msg.value}(\"\");\n        require(sent, \"Ether transfer to asset owner failed.\");\n    }\n\n    function getAppreciatorsByAssetId(string memory _id) public view returns (Appreciator[] memory) {\n        bytes32 assetId = keccak256(abi.encodePacked(_id));\n        Assets storage asset = assets_display[assetId];\n\n        return asset.appreciators;\n    }\n\n    function getAllAppreciators() public view returns (Appreciator[] memory) {\n        Appreciator[] memory allAppreciators = new Appreciator[](\n            no_of_appreciators\n        );\n        uint256 currentIndex = 0;\n\n        // Loop through all the assets\n        for (uint256 i = 0; i < assetIds.length; i++) {\n            bytes32 assetId = assetIds[i];\n            Assets storage asset = assets_display[assetId];\n\n            // Loop through all the appreciators for this asset\n            for (uint256 j = 0; j < asset.appreciators.length; j++) {\n                allAppreciators[currentIndex] = asset.appreciators[j];\n                currentIndex++;\n            }\n        }\n\n        return allAppreciators;\n    }\n}",
  "sourcePath": "/home/rockyessel/Desktop/2024/3.0/localdev/contracts/MetaDisplay.sol",
  "compiler": {
    "name": "solc",
    "version": "0.8.19+commit.7dd6d404.Emscripten.clang"
  },
  "schemaVersion": "3.4.16",
  "updatedAt": "2024-02-12T04:13:13.782Z",
  "networkType": "ethereum",
  "devdoc": {
    "kind": "dev",
    "methods": {},
    "version": 1
  },
  "userdoc": {
    "kind": "user",
    "methods": {},
    "version": 1
  }
}